{
  "contractName": "NFT",
  "abi": [
    {
      "inputs": [
        {
          "internalType": "string",
          "name": "name",
          "type": "string"
        },
        {
          "internalType": "string",
          "name": "symbol",
          "type": "string"
        }
      ],
      "stateMutability": "nonpayable",
      "type": "constructor"
    },
    {
      "anonymous": false,
      "inputs": [
        {
          "indexed": true,
          "internalType": "address",
          "name": "owner",
          "type": "address"
        },
        {
          "indexed": true,
          "internalType": "address",
          "name": "approved",
          "type": "address"
        },
        {
          "indexed": true,
          "internalType": "uint256",
          "name": "tokenId",
          "type": "uint256"
        }
      ],
      "name": "Approval",
      "type": "event"
    },
    {
      "anonymous": false,
      "inputs": [
        {
          "indexed": true,
          "internalType": "address",
          "name": "owner",
          "type": "address"
        },
        {
          "indexed": true,
          "internalType": "address",
          "name": "operator",
          "type": "address"
        },
        {
          "indexed": false,
          "internalType": "bool",
          "name": "approved",
          "type": "bool"
        }
      ],
      "name": "ApprovalForAll",
      "type": "event"
    },
    {
      "anonymous": false,
      "inputs": [
        {
          "indexed": true,
          "internalType": "address",
          "name": "previousOwner",
          "type": "address"
        },
        {
          "indexed": true,
          "internalType": "address",
          "name": "newOwner",
          "type": "address"
        }
      ],
      "name": "OwnershipTransferred",
      "type": "event"
    },
    {
      "anonymous": false,
      "inputs": [
        {
          "indexed": true,
          "internalType": "address",
          "name": "from",
          "type": "address"
        },
        {
          "indexed": true,
          "internalType": "address",
          "name": "to",
          "type": "address"
        },
        {
          "indexed": true,
          "internalType": "uint256",
          "name": "tokenId",
          "type": "uint256"
        }
      ],
      "name": "Transfer",
      "type": "event"
    },
    {
      "inputs": [
        {
          "internalType": "address",
          "name": "to",
          "type": "address"
        },
        {
          "internalType": "uint256",
          "name": "tokenId",
          "type": "uint256"
        }
      ],
      "name": "approve",
      "outputs": [],
      "stateMutability": "nonpayable",
      "type": "function"
    },
    {
      "inputs": [
        {
          "internalType": "address",
          "name": "owner",
          "type": "address"
        }
      ],
      "name": "balanceOf",
      "outputs": [
        {
          "internalType": "uint256",
          "name": "",
          "type": "uint256"
        }
      ],
      "stateMutability": "view",
      "type": "function",
      "constant": true
    },
    {
      "inputs": [
        {
          "internalType": "uint256",
          "name": "tokenId",
          "type": "uint256"
        }
      ],
      "name": "getApproved",
      "outputs": [
        {
          "internalType": "address",
          "name": "",
          "type": "address"
        }
      ],
      "stateMutability": "view",
      "type": "function",
      "constant": true
    },
    {
      "inputs": [
        {
          "internalType": "address",
          "name": "owner",
          "type": "address"
        },
        {
          "internalType": "address",
          "name": "operator",
          "type": "address"
        }
      ],
      "name": "isApprovedForAll",
      "outputs": [
        {
          "internalType": "bool",
          "name": "",
          "type": "bool"
        }
      ],
      "stateMutability": "view",
      "type": "function",
      "constant": true
    },
    {
      "inputs": [],
      "name": "name",
      "outputs": [
        {
          "internalType": "string",
          "name": "",
          "type": "string"
        }
      ],
      "stateMutability": "view",
      "type": "function",
      "constant": true
    },
    {
      "inputs": [],
      "name": "owner",
      "outputs": [
        {
          "internalType": "address",
          "name": "",
          "type": "address"
        }
      ],
      "stateMutability": "view",
      "type": "function",
      "constant": true
    },
    {
      "inputs": [
        {
          "internalType": "uint256",
          "name": "tokenId",
          "type": "uint256"
        }
      ],
      "name": "ownerOf",
      "outputs": [
        {
          "internalType": "address",
          "name": "",
          "type": "address"
        }
      ],
      "stateMutability": "view",
      "type": "function",
      "constant": true
    },
    {
      "inputs": [],
      "name": "renounceOwnership",
      "outputs": [],
      "stateMutability": "nonpayable",
      "type": "function"
    },
    {
      "inputs": [
        {
          "internalType": "address",
          "name": "from",
          "type": "address"
        },
        {
          "internalType": "address",
          "name": "to",
          "type": "address"
        },
        {
          "internalType": "uint256",
          "name": "tokenId",
          "type": "uint256"
        }
      ],
      "name": "safeTransferFrom",
      "outputs": [],
      "stateMutability": "nonpayable",
      "type": "function"
    },
    {
      "inputs": [
        {
          "internalType": "address",
          "name": "from",
          "type": "address"
        },
        {
          "internalType": "address",
          "name": "to",
          "type": "address"
        },
        {
          "internalType": "uint256",
          "name": "tokenId",
          "type": "uint256"
        },
        {
          "internalType": "bytes",
          "name": "_data",
          "type": "bytes"
        }
      ],
      "name": "safeTransferFrom",
      "outputs": [],
      "stateMutability": "nonpayable",
      "type": "function"
    },
    {
      "inputs": [
        {
          "internalType": "address",
          "name": "operator",
          "type": "address"
        },
        {
          "internalType": "bool",
          "name": "approved",
          "type": "bool"
        }
      ],
      "name": "setApprovalForAll",
      "outputs": [],
      "stateMutability": "nonpayable",
      "type": "function"
    },
    {
      "inputs": [
        {
          "internalType": "bytes4",
          "name": "interfaceId",
          "type": "bytes4"
        }
      ],
      "name": "supportsInterface",
      "outputs": [
        {
          "internalType": "bool",
          "name": "",
          "type": "bool"
        }
      ],
      "stateMutability": "view",
      "type": "function",
      "constant": true
    },
    {
      "inputs": [],
      "name": "symbol",
      "outputs": [
        {
          "internalType": "string",
          "name": "",
          "type": "string"
        }
      ],
      "stateMutability": "view",
      "type": "function",
      "constant": true
    },
    {
      "inputs": [
        {
          "internalType": "uint256",
          "name": "index",
          "type": "uint256"
        }
      ],
      "name": "tokenByIndex",
      "outputs": [
        {
          "internalType": "uint256",
          "name": "",
          "type": "uint256"
        }
      ],
      "stateMutability": "view",
      "type": "function",
      "constant": true
    },
    {
      "inputs": [
        {
          "internalType": "address",
          "name": "owner",
          "type": "address"
        },
        {
          "internalType": "uint256",
          "name": "index",
          "type": "uint256"
        }
      ],
      "name": "tokenOfOwnerByIndex",
      "outputs": [
        {
          "internalType": "uint256",
          "name": "",
          "type": "uint256"
        }
      ],
      "stateMutability": "view",
      "type": "function",
      "constant": true
    },
    {
      "inputs": [
        {
          "internalType": "uint256",
          "name": "tokenId",
          "type": "uint256"
        }
      ],
      "name": "tokenURI",
      "outputs": [
        {
          "internalType": "string",
          "name": "",
          "type": "string"
        }
      ],
      "stateMutability": "view",
      "type": "function",
      "constant": true
    },
    {
      "inputs": [],
      "name": "totalSupply",
      "outputs": [
        {
          "internalType": "uint256",
          "name": "",
          "type": "uint256"
        }
      ],
      "stateMutability": "view",
      "type": "function",
      "constant": true
    },
    {
      "inputs": [
        {
          "internalType": "address",
          "name": "from",
          "type": "address"
        },
        {
          "internalType": "address",
          "name": "to",
          "type": "address"
        },
        {
          "internalType": "uint256",
          "name": "tokenId",
          "type": "uint256"
        }
      ],
      "name": "transferFrom",
      "outputs": [],
      "stateMutability": "nonpayable",
      "type": "function"
    },
    {
      "inputs": [
        {
          "internalType": "address",
          "name": "newOwner",
          "type": "address"
        }
      ],
      "name": "transferOwnership",
      "outputs": [],
      "stateMutability": "nonpayable",
      "type": "function"
    },
    {
      "inputs": [
        {
          "internalType": "uint256",
          "name": "tokenId",
          "type": "uint256"
        },
        {
          "internalType": "uint256",
          "name": "amount",
          "type": "uint256"
        }
      ],
      "name": "giveExperience",
      "outputs": [],
      "stateMutability": "nonpayable",
      "type": "function"
    },
    {
      "inputs": [
        {
          "internalType": "uint256",
          "name": "levelAmount",
          "type": "uint256"
        }
      ],
      "name": "addLevels",
      "outputs": [],
      "stateMutability": "nonpayable",
      "type": "function"
    },
    {
      "inputs": [
        {
          "internalType": "uint256",
          "name": "levelIndex",
          "type": "uint256"
        }
      ],
      "name": "returnLevel",
      "outputs": [
        {
          "internalType": "uint256",
          "name": "",
          "type": "uint256"
        }
      ],
      "stateMutability": "view",
      "type": "function",
      "constant": true
    },
    {
      "inputs": [
        {
          "internalType": "uint256",
          "name": "tokenId",
          "type": "uint256"
        }
      ],
      "name": "levelUp",
      "outputs": [],
      "stateMutability": "nonpayable",
      "type": "function"
    },
    {
      "inputs": [
        {
          "internalType": "uint256",
          "name": "tokenId",
          "type": "uint256"
        }
      ],
      "name": "experienceOf",
      "outputs": [
        {
          "internalType": "uint256",
          "name": "",
          "type": "uint256"
        }
      ],
      "stateMutability": "view",
      "type": "function",
      "constant": true
    },
    {
      "inputs": [
        {
          "internalType": "uint256",
          "name": "tokenId",
          "type": "uint256"
        }
      ],
      "name": "levelOf",
      "outputs": [
        {
          "internalType": "uint256",
          "name": "",
          "type": "uint256"
        }
      ],
      "stateMutability": "view",
      "type": "function",
      "constant": true
    },
    {
      "inputs": [
        {
          "internalType": "uint256",
          "name": "nextLevelIndex",
          "type": "uint256"
        }
      ],
      "name": "requiredExpForNextLevel",
      "outputs": [
        {
          "internalType": "uint256",
          "name": "",
          "type": "uint256"
        }
      ],
      "stateMutability": "view",
      "type": "function",
      "constant": true
    },
    {
      "inputs": [],
      "name": "lastStaminaReplenishedTime",
      "outputs": [
        {
          "internalType": "uint256",
          "name": "",
          "type": "uint256"
        }
      ],
      "stateMutability": "view",
      "type": "function",
      "constant": true
    },
    {
      "inputs": [
        {
          "internalType": "uint256",
          "name": "tokenId",
          "type": "uint256"
        }
      ],
      "name": "getTokenDetails",
      "outputs": [
        {
          "components": [
            {
              "internalType": "uint256",
              "name": "mining",
              "type": "uint256"
            },
            {
              "internalType": "uint256",
              "name": "luck",
              "type": "uint256"
            },
            {
              "internalType": "uint256",
              "name": "stamina",
              "type": "uint256"
            },
            {
              "internalType": "uint256",
              "name": "mineCooldown",
              "type": "uint256"
            },
            {
              "internalType": "uint256",
              "name": "lastMine",
              "type": "uint256"
            },
            {
              "internalType": "uint256",
              "name": "level",
              "type": "uint256"
            },
            {
              "internalType": "uint256",
              "name": "experience",
              "type": "uint256"
            }
          ],
          "internalType": "struct NFT.Dwarf",
          "name": "",
          "type": "tuple"
        }
      ],
      "stateMutability": "view",
      "type": "function",
      "constant": true
    },
    {
      "inputs": [],
      "name": "maxSupply_t",
      "outputs": [
        {
          "internalType": "uint256",
          "name": "",
          "type": "uint256"
        }
      ],
      "stateMutability": "view",
      "type": "function",
      "constant": true
    },
    {
      "inputs": [
        {
          "internalType": "address",
          "name": "_rewardAdress",
          "type": "address"
        }
      ],
      "name": "setRewardAdress",
      "outputs": [],
      "stateMutability": "nonpayable",
      "type": "function"
    },
    {
      "inputs": [
        {
          "internalType": "uint256",
          "name": "mining",
          "type": "uint256"
        },
        {
          "internalType": "uint256",
          "name": "luck",
          "type": "uint256"
        },
        {
          "internalType": "uint256",
          "name": "stamina",
          "type": "uint256"
        },
        {
          "internalType": "uint256",
          "name": "mineCooldown",
          "type": "uint256"
        }
      ],
      "name": "mint",
      "outputs": [],
      "stateMutability": "nonpayable",
      "type": "function"
    },
    {
      "inputs": [],
      "name": "totalSupply_t",
      "outputs": [
        {
          "internalType": "uint256",
          "name": "",
          "type": "uint256"
        }
      ],
      "stateMutability": "view",
      "type": "function",
      "constant": true
    },
    {
      "inputs": [
        {
          "internalType": "uint256",
          "name": "tokenId",
          "type": "uint256"
        }
      ],
      "name": "mine",
      "outputs": [
        {
          "internalType": "string",
          "name": "",
          "type": "string"
        }
      ],
      "stateMutability": "nonpayable",
      "type": "function"
    },
    {
      "inputs": [],
      "name": "getAllTokens",
      "outputs": [
        {
          "internalType": "uint256[]",
          "name": "",
          "type": "uint256[]"
        }
      ],
      "stateMutability": "view",
      "type": "function",
      "constant": true
    },
    {
      "inputs": [
        {
          "internalType": "address",
          "name": "user",
          "type": "address"
        }
      ],
      "name": "getAllTokensOfUser",
      "outputs": [
        {
          "internalType": "uint256[]",
          "name": "",
          "type": "uint256[]"
        }
      ],
      "stateMutability": "view",
      "type": "function",
      "constant": true
    }
  ],
  "bytecode": "0x60806040526000600b556000600c556000600f55601e6012556064601355601e6014553480156200002f57600080fd5b50604051620044cb380380620044cb833981810160405281019062000055919062000483565b818181600090805190602001906200006f92919062000236565b5080600190805190602001906200008892919062000236565b505050620000ab6200009f620000d360201b60201c565b620000db60201b60201c565b6103e8600c8190555042601181905550620000cb620001a160201b60201c565b505062000651565b600033905090565b6000600a60009054906101000a900473ffffffffffffffffffffffffffffffffffffffff16905081600a60006101000a81548173ffffffffffffffffffffffffffffffffffffffff021916908373ffffffffffffffffffffffffffffffffffffffff1602179055508173ffffffffffffffffffffffffffffffffffffffff168173ffffffffffffffffffffffffffffffffffffffff167f8be0079c531659141344cd1fd0a4f28419497f9722a3daafe3b4186f6b6457e060405160405180910390a35050565b6000600b549050600042601254601154620001bd919062000541565b10156200020157600090505b81811015620001f957620001e3816200020560201b60201c565b8080620001f0906200059e565b915050620001c9565b426011819055505b5050565b600d600082815260200190815260200160002060020160008154809291906200022e906200059e565b919050555050565b82805462000244906200061b565b90600052602060002090601f016020900481019282620002685760008555620002b4565b82601f106200028357805160ff1916838001178555620002b4565b82800160010185558215620002b4579182015b82811115620002b357825182559160200191906001019062000296565b5b509050620002c39190620002c7565b5090565b5b80821115620002e2576000816000905550600101620002c8565b5090565b6000604051905090565b600080fd5b600080fd5b600080fd5b600080fd5b6000601f19601f8301169050919050565b7f4e487b7100000000000000000000000000000000000000000000000000000000600052604160045260246000fd5b6200034f8262000304565b810181811067ffffffffffffffff8211171562000371576200037062000315565b5b80604052505050565b600062000386620002e6565b905062000394828262000344565b919050565b600067ffffffffffffffff821115620003b757620003b662000315565b5b620003c28262000304565b9050602081019050919050565b60005b83811015620003ef578082015181840152602081019050620003d2565b83811115620003ff576000848401525b50505050565b60006200041c620004168462000399565b6200037a565b9050828152602081018484840111156200043b576200043a620002ff565b5b62000448848285620003cf565b509392505050565b600082601f830112620004685762000467620002fa565b5b81516200047a84826020860162000405565b91505092915050565b600080604083850312156200049d576200049c620002f0565b5b600083015167ffffffffffffffff811115620004be57620004bd620002f5565b5b620004cc8582860162000450565b925050602083015167ffffffffffffffff811115620004f057620004ef620002f5565b5b620004fe8582860162000450565b9150509250929050565b6000819050919050565b7f4e487b7100000000000000000000000000000000000000000000000000000000600052601160045260246000fd5b60006200054e8262000508565b91506200055b8362000508565b9250827fffffffffffffffffffffffffffffffffffffffffffffffffffffffffffffffff0382111562000593576200059262000512565b5b828201905092915050565b6000620005ab8262000508565b91507fffffffffffffffffffffffffffffffffffffffffffffffffffffffffffffffff821415620005e157620005e062000512565b5b600182019050919050565b7f4e487b7100000000000000000000000000000000000000000000000000000000600052602260045260246000fd5b600060028204905060018216806200063457607f821691505b602082108114156200064b576200064a620005ec565b5b50919050565b613e6a80620006616000396000f3fe608060405234801561001057600080fd5b50600436106102115760003560e01c806362ca032c11610125578063a22cb465116100ad578063d6273e3f1161007c578063d6273e3f1461065e578063e985e9c51461067c578063f2fde38b146106ac578063f572f69a146106c8578063fd1af49c146106f857610211565b8063a22cb465146105c6578063b88d4fde146105e2578063c1e03728146105fe578063c87b56dd1461062e57610211565b80636d5e3032116100f45780636d5e30321461052057806370a0823114610550578063715018a6146105805780638da5cb5b1461058a57806395d89b41146105a857610211565b806362ca032c146104885780636352211e146104a457806365675074146104d45780636582ccd31461050457610211565b806323b872dd116101a857806342842e0e1161017757806342842e0e146103c05780634d474898146103dc5780634f6ccce71461040c57806352ff03911461043c578063556755341461045857610211565b806323b872dd146103385780632869935b146103545780632a5c792a146103725780632f745c591461039057610211565b8063095ea7b3116101e4578063095ea7b3146102c45780630ce90ec2146102e057806312f85e9b146102fc57806318160ddd1461031a57610211565b806301ffc9a71461021657806306fdde0314610246578063081812fc146102645780630894eb7414610294575b600080fd5b610230600480360381019061022b91906127fe565b610714565b60405161023d9190612846565b60405180910390f35b61024e61078e565b60405161025b91906128fa565b60405180910390f35b61027e60048036038101906102799190612952565b610820565b60405161028b91906129c0565b60405180910390f35b6102ae60048036038101906102a99190612952565b6108a5565b6040516102bb91906129ea565b60405180910390f35b6102de60048036038101906102d99190612a31565b6108c2565b005b6102fa60048036038101906102f59190612952565b6109da565b005b610304610a25565b60405161031191906129ea565b60405180910390f35b610322610a2f565b60405161032f91906129ea565b60405180910390f35b610352600480360381019061034d9190612a71565b610a3c565b005b61035c610a9c565b60405161036991906129ea565b60405180910390f35b61037a610aa6565b6040516103879190612b82565b60405180910390f35b6103aa60048036038101906103a59190612a31565b610b9f565b6040516103b791906129ea565b60405180910390f35b6103da60048036038101906103d59190612a71565b610c44565b005b6103f660048036038101906103f19190612952565b610c64565b60405161040391906128fa565b60405180910390f35b61042660048036038101906104219190612952565b610e16565b60405161043391906129ea565b60405180910390f35b61045660048036038101906104519190612ba4565b610e87565b005b610472600480360381019061046d9190612952565b610ecb565b60405161047f91906129ea565b60405180910390f35b6104a2600480360381019061049d9190612bd1565b610ee8565b005b6104be60048036038101906104b99190612952565b610f4e565b6040516104cb91906129c0565b60405180910390f35b6104ee60048036038101906104e99190612ba4565b611000565b6040516104fb9190612b82565b60405180910390f35b61051e60048036038101906105199190612c11565b611102565b005b61053a60048036038101906105359190612952565b6111c7565b60405161054791906129ea565b60405180910390f35b61056a60048036038101906105659190612ba4565b6111e7565b60405161057791906129ea565b60405180910390f35b61058861129f565b005b610592611327565b60405161059f91906129c0565b60405180910390f35b6105b0611351565b6040516105bd91906128fa565b60405180910390f35b6105e060048036038101906105db9190612ca4565b6113e3565b005b6105fc60048036038101906105f79190612e19565b611564565b005b61061860048036038101906106139190612952565b6115c6565b6040516106259190612f2a565b60405180910390f35b61064860048036038101906106439190612952565b611639565b60405161065591906128fa565b60405180910390f35b6106666116e0565b60405161067391906129ea565b60405180910390f35b61069660048036038101906106919190612f45565b6116ea565b6040516106a39190612846565b60405180910390f35b6106c660048036038101906106c19190612ba4565b61177e565b005b6106e260048036038101906106dd9190612952565b611876565b6040516106ef91906129ea565b60405180910390f35b610712600480360381019061070d9190612952565b611896565b005b60007f780e9d63000000000000000000000000000000000000000000000000000000007bffffffffffffffffffffffffffffffffffffffffffffffffffffffff1916827bffffffffffffffffffffffffffffffffffffffffffffffffffffffff19161480610787575061078682611a21565b5b9050919050565b60606000805461079d90612fb4565b80601f01602080910402602001604051908101604052809291908181526020018280546107c990612fb4565b80156108165780601f106107eb57610100808354040283529160200191610816565b820191906000526020600020905b8154815290600101906020018083116107f957829003601f168201915b5050505050905090565b600061082b82611b03565b61086a576040517f08c379a000000000000000000000000000000000000000000000000000000000815260040161086190613058565b60405180910390fd5b6004600083815260200190815260200160002060009054906101000a900473ffffffffffffffffffffffffffffffffffffffff169050919050565b6000600e6000838152602001908152602001600020549050919050565b60006108cd82610f4e565b90508073ffffffffffffffffffffffffffffffffffffffff168373ffffffffffffffffffffffffffffffffffffffff16141561093e576040517f08c379a0000000000000000000000000000000000000000000000000000000008152600401610935906130ea565b60405180910390fd5b8073ffffffffffffffffffffffffffffffffffffffff1661095d611b6f565b73ffffffffffffffffffffffffffffffffffffffff16148061098c575061098b81610986611b6f565b6116ea565b5b6109cb576040517f08c379a00000000000000000000000000000000000000000000000000000000081526004016109c29061317c565b60405180910390fd5b6109d58383611b77565b505050565b600d60008281526020019081526020016000206005016000815480929190610a01906131cb565b91905055506000600d60008381526020019081526020016000206006018190555050565b6000601154905090565b6000600880549050905090565b610a4d610a47611b6f565b82611c30565b610a8c576040517f08c379a0000000000000000000000000000000000000000000000000000000008152600401610a8390613286565b60405180910390fd5b610a97838383611d0e565b505050565b6000600b54905090565b60606000600b54905060008167ffffffffffffffff811115610acb57610aca612cee565b5b604051908082528060200260200182016040528015610af95781602001602082028036833780820191505090505b50905060008060009050600091505b83821015610b515781838281518110610b2457610b236132a6565b5b6020026020010181815250508080610b3b906131cb565b9150508180610b49906131cb565b925050610b08565b6000835111610b95576040517f08c379a0000000000000000000000000000000000000000000000000000000008152600401610b8c90613321565b60405180910390fd5b8294505050505090565b6000610baa836111e7565b8210610beb576040517f08c379a0000000000000000000000000000000000000000000000000000000008152600401610be2906133b3565b60405180910390fd5b600660008473ffffffffffffffffffffffffffffffffffffffff1673ffffffffffffffffffffffffffffffffffffffff168152602001908152602001600020600083815260200190815260200160002054905092915050565b610c5f83838360405180602001604052806000815250611564565b505050565b6060610c6e611f6a565b6000601060009054906101000a900473ffffffffffffffffffffffffffffffffffffffff169050600066038d7ea4c68000905060003390508273ffffffffffffffffffffffffffffffffffffffff166321670f2282846040518363ffffffff1660e01b8152600401610ce19291906133d3565b602060405180830381600087803b158015610cfb57600080fd5b505af1158015610d0f573d6000803e3d6000fd5b505050506040513d601f19601f82011682018060405250810190610d339190613411565b506000600d600087815260200190815260200160002090503373ffffffffffffffffffffffffffffffffffffffff16610d6b87610f4e565b73ffffffffffffffffffffffffffffffffffffffff1614610dc1576040517f08c379a0000000000000000000000000000000000000000000000000000000008152600401610db89061348a565b60405180910390fd5b428160040181905550610dd58660c8610ee8565b6040518060400160405280600781526020017f5375636365737300000000000000000000000000000000000000000000000000815250945050505050919050565b6000610e20610a2f565b8210610e61576040517f08c379a0000000000000000000000000000000000000000000000000000000008152600401610e589061351c565b60405180910390fd5b60088281548110610e7557610e746132a6565b5b90600052602060002001549050919050565b80601060006101000a81548173ffffffffffffffffffffffffffffffffffffffff021916908373ffffffffffffffffffffffffffffffffffffffff16021790555050565b6000600e6000838152602001908152602001600020549050919050565b80600d60008481526020019081526020016000206006016000828254610f0e919061353c565b925050819055506000600d6000848152602001908152602001600020600601549050610f3983610ecb565b8110610f4957610f48836109da565b5b505050565b6000806002600084815260200190815260200160002060009054906101000a900473ffffffffffffffffffffffffffffffffffffffff169050600073ffffffffffffffffffffffffffffffffffffffff168173ffffffffffffffffffffffffffffffffffffffff161415610ff7576040517f08c379a0000000000000000000000000000000000000000000000000000000008152600401610fee90613604565b60405180910390fd5b80915050919050565b6060600061100d836111e7565b905060008167ffffffffffffffff81111561102b5761102a612cee565b5b6040519080825280602002602001820160405280156110595781602001602082028036833780820191505090505b5090506000600b54905060008060009050600091505b828210156110f5578673ffffffffffffffffffffffffffffffffffffffff1661109783610f4e565b73ffffffffffffffffffffffffffffffffffffffff1614156110e257818482815181106110c7576110c66132a6565b5b60200260200101818152505080806110de906131cb565b9150505b81806110ed906131cb565b92505061106f565b8395505050505050919050565b6040518060e00160405280858152602001848152602001838152602001828152602001428152602001600181526020016000815250600d6000600b548152602001908152602001600020600082015181600001556020820151816001015560408201518160020155606082015181600301556080820151816004015560a0820151816005015560c082015181600601559050506111a133600b54611fbf565b600b60008154809291906111b4906131cb565b91905055506111c1611f6a565b50505050565b6000600d6000838152602001908152602001600020600501549050919050565b60008073ffffffffffffffffffffffffffffffffffffffff168273ffffffffffffffffffffffffffffffffffffffff161415611258576040517f08c379a000000000000000000000000000000000000000000000000000000000815260040161124f90613696565b60405180910390fd5b600360008373ffffffffffffffffffffffffffffffffffffffff1673ffffffffffffffffffffffffffffffffffffffff168152602001908152602001600020549050919050565b6112a7611b6f565b73ffffffffffffffffffffffffffffffffffffffff166112c5611327565b73ffffffffffffffffffffffffffffffffffffffff161461131b576040517f08c379a000000000000000000000000000000000000000000000000000000000815260040161131290613702565b60405180910390fd5b6113256000611fdd565b565b6000600a60009054906101000a900473ffffffffffffffffffffffffffffffffffffffff16905090565b60606001805461136090612fb4565b80601f016020809104026020016040519081016040528092919081815260200182805461138c90612fb4565b80156113d95780601f106113ae576101008083540402835291602001916113d9565b820191906000526020600020905b8154815290600101906020018083116113bc57829003601f168201915b5050505050905090565b6113eb611b6f565b73ffffffffffffffffffffffffffffffffffffffff168273ffffffffffffffffffffffffffffffffffffffff161415611459576040517f08c379a00000000000000000000000000000000000000000000000000000000081526004016114509061376e565b60405180910390fd5b8060056000611466611b6f565b73ffffffffffffffffffffffffffffffffffffffff1673ffffffffffffffffffffffffffffffffffffffff16815260200190815260200160002060008473ffffffffffffffffffffffffffffffffffffffff1673ffffffffffffffffffffffffffffffffffffffff16815260200190815260200160002060006101000a81548160ff0219169083151502179055508173ffffffffffffffffffffffffffffffffffffffff16611513611b6f565b73ffffffffffffffffffffffffffffffffffffffff167f17307eab39ab6107e8899845ad3d59bd9653f200f220920489ca2b5937696c31836040516115589190612846565b60405180910390a35050565b61157561156f611b6f565b83611c30565b6115b4576040517f08c379a00000000000000000000000000000000000000000000000000000000081526004016115ab90613286565b60405180910390fd5b6115c0848484846120a3565b50505050565b6115ce612755565b600d60008381526020019081526020016000206040518060e00160405290816000820154815260200160018201548152602001600282015481526020016003820154815260200160048201548152602001600582015481526020016006820154815250509050919050565b606061164482611b03565b611683576040517f08c379a000000000000000000000000000000000000000000000000000000000815260040161167a90613800565b60405180910390fd5b600061168d6120ff565b905060008151116116ad57604051806020016040528060008152506116d8565b806116b784612116565b6040516020016116c892919061385c565b6040516020818303038152906040525b915050919050565b6000600c54905090565b6000600560008473ffffffffffffffffffffffffffffffffffffffff1673ffffffffffffffffffffffffffffffffffffffff16815260200190815260200160002060008373ffffffffffffffffffffffffffffffffffffffff1673ffffffffffffffffffffffffffffffffffffffff16815260200190815260200160002060009054906101000a900460ff16905092915050565b611786611b6f565b73ffffffffffffffffffffffffffffffffffffffff166117a4611327565b73ffffffffffffffffffffffffffffffffffffffff16146117fa576040517f08c379a00000000000000000000000000000000000000000000000000000000081526004016117f190613702565b60405180910390fd5b600073ffffffffffffffffffffffffffffffffffffffff168173ffffffffffffffffffffffffffffffffffffffff16141561186a576040517f08c379a0000000000000000000000000000000000000000000000000000000008152600401611861906138f2565b60405180910390fd5b61187381611fdd565b50565b6000600d6000838152602001908152602001600020600601549050919050565b61189e611b6f565b73ffffffffffffffffffffffffffffffffffffffff166118bc611327565b73ffffffffffffffffffffffffffffffffffffffff1614611912576040517f08c379a000000000000000000000000000000000000000000000000000000000815260040161190990613702565b60405180910390fd5b60005b81811015611a0357600060145411156119455761193e600160145461227790919063ffffffff16565b6014819055505b611975601454606460135461195a9190613941565b6119649190613972565b60135461228d90919063ffffffff16565b60138190555060006013549050600060649050808160018385611998919061353c565b6119a291906139cc565b6119ac9190613941565b6119b69190613972565b601381905550601354600e600085815260200190815260200160002081905550600f60008154809291906119e9906131cb565b9190505550505080806119fb906131cb565b915050611915565b600e6000828152602001908152602001600020546013819055505050565b60007f80ac58cd000000000000000000000000000000000000000000000000000000007bffffffffffffffffffffffffffffffffffffffffffffffffffffffff1916827bffffffffffffffffffffffffffffffffffffffffffffffffffffffff19161480611aec57507f5b5e139f000000000000000000000000000000000000000000000000000000007bffffffffffffffffffffffffffffffffffffffffffffffffffffffff1916827bffffffffffffffffffffffffffffffffffffffffffffffffffffffff1916145b80611afc5750611afb826122a3565b5b9050919050565b60008073ffffffffffffffffffffffffffffffffffffffff166002600084815260200190815260200160002060009054906101000a900473ffffffffffffffffffffffffffffffffffffffff1673ffffffffffffffffffffffffffffffffffffffff1614159050919050565b600033905090565b816004600083815260200190815260200160002060006101000a81548173ffffffffffffffffffffffffffffffffffffffff021916908373ffffffffffffffffffffffffffffffffffffffff160217905550808273ffffffffffffffffffffffffffffffffffffffff16611bea83610f4e565b73ffffffffffffffffffffffffffffffffffffffff167f8c5be1e5ebec7d5bd14f71427d1e84f3dd0314c0f7b2291e5b200ac8c7c3b92560405160405180910390a45050565b6000611c3b82611b03565b611c7a576040517f08c379a0000000000000000000000000000000000000000000000000000000008152600401611c7190613a72565b60405180910390fd5b6000611c8583610f4e565b90508073ffffffffffffffffffffffffffffffffffffffff168473ffffffffffffffffffffffffffffffffffffffff161480611cf457508373ffffffffffffffffffffffffffffffffffffffff16611cdc84610820565b73ffffffffffffffffffffffffffffffffffffffff16145b80611d055750611d0481856116ea565b5b91505092915050565b8273ffffffffffffffffffffffffffffffffffffffff16611d2e82610f4e565b73ffffffffffffffffffffffffffffffffffffffff1614611d84576040517f08c379a0000000000000000000000000000000000000000000000000000000008152600401611d7b90613b04565b60405180910390fd5b600073ffffffffffffffffffffffffffffffffffffffff168273ffffffffffffffffffffffffffffffffffffffff161415611df4576040517f08c379a0000000000000000000000000000000000000000000000000000000008152600401611deb90613b96565b60405180910390fd5b611dff83838361230d565b611e0a600082611b77565b6001600360008573ffffffffffffffffffffffffffffffffffffffff1673ffffffffffffffffffffffffffffffffffffffff1681526020019081526020016000206000828254611e5a91906139cc565b925050819055506001600360008473ffffffffffffffffffffffffffffffffffffffff1673ffffffffffffffffffffffffffffffffffffffff1681526020019081526020016000206000828254611eb1919061353c565b92505081905550816002600083815260200190815260200160002060006101000a81548173ffffffffffffffffffffffffffffffffffffffff021916908373ffffffffffffffffffffffffffffffffffffffff160217905550808273ffffffffffffffffffffffffffffffffffffffff168473ffffffffffffffffffffffffffffffffffffffff167fddf252ad1be2c89b69c2b068fc378daa952ba7f163c4a11628f55a4df523b3ef60405160405180910390a4505050565b6000600b549050600042601254601154611f84919061353c565b1015611fbb57600090505b81811015611fb357611fa081612353565b8080611fab906131cb565b915050611f8f565b426011819055505b5050565b611fd9828260405180602001604052806000815250612382565b5050565b6000600a60009054906101000a900473ffffffffffffffffffffffffffffffffffffffff16905081600a60006101000a81548173ffffffffffffffffffffffffffffffffffffffff021916908373ffffffffffffffffffffffffffffffffffffffff1602179055508173ffffffffffffffffffffffffffffffffffffffff168173ffffffffffffffffffffffffffffffffffffffff167f8be0079c531659141344cd1fd0a4f28419497f9722a3daafe3b4186f6b6457e060405160405180910390a35050565b6120ae848484611d0e565b6120ba848484846123dd565b6120f9576040517f08c379a00000000000000000000000000000000000000000000000000000000081526004016120f090613c28565b60405180910390fd5b50505050565b606060405180602001604052806000815250905090565b6060600082141561215e576040518060400160405280600181526020017f30000000000000000000000000000000000000000000000000000000000000008152509050612272565b600082905060005b60008214612190578080612179906131cb565b915050600a826121899190613941565b9150612166565b60008167ffffffffffffffff8111156121ac576121ab612cee565b5b6040519080825280601f01601f1916602001820160405280156121de5781602001600182028036833780820191505090505b5090505b6000851461226b576001826121f791906139cc565b9150600a856122069190613c48565b6030612212919061353c565b60f81b818381518110612228576122276132a6565b5b60200101907effffffffffffffffffffffffffffffffffffffffffffffffffffffffffffff1916908160001a905350600a856122649190613941565b94506121e2565b8093505050505b919050565b6000818361228591906139cc565b905092915050565b6000818361229b919061353c565b905092915050565b60007f01ffc9a7000000000000000000000000000000000000000000000000000000007bffffffffffffffffffffffffffffffffffffffffffffffffffffffff1916827bffffffffffffffffffffffffffffffffffffffffffffffffffffffff1916149050919050565b6000600d6000600b5481526020019081526020016000209050428160030154826004015461233b919061353c565b1161234557600080fd5b61234d611f6a565b50505050565b600d6000828152602001908152602001600020600201600081548092919061237a906131cb565b919050555050565b61238c8383612574565b61239960008484846123dd565b6123d8576040517f08c379a00000000000000000000000000000000000000000000000000000000081526004016123cf90613c28565b60405180910390fd5b505050565b60006123fe8473ffffffffffffffffffffffffffffffffffffffff16612742565b15612567578373ffffffffffffffffffffffffffffffffffffffff1663150b7a02612427611b6f565b8786866040518563ffffffff1660e01b81526004016124499493929190613cce565b602060405180830381600087803b15801561246357600080fd5b505af192505050801561249457506040513d601f19601f820116820180604052508101906124919190613d2f565b60015b612517573d80600081146124c4576040519150601f19603f3d011682016040523d82523d6000602084013e6124c9565b606091505b5060008151141561250f576040517f08c379a000000000000000000000000000000000000000000000000000000000815260040161250690613c28565b60405180910390fd5b805181602001fd5b63150b7a0260e01b7bffffffffffffffffffffffffffffffffffffffffffffffffffffffff1916817bffffffffffffffffffffffffffffffffffffffffffffffffffffffff19161491505061256c565b600190505b949350505050565b600073ffffffffffffffffffffffffffffffffffffffff168273ffffffffffffffffffffffffffffffffffffffff1614156125e4576040517f08c379a00000000000000000000000000000000000000000000000000000000081526004016125db90613da8565b60405180910390fd5b6125ed81611b03565b1561262d576040517f08c379a000000000000000000000000000000000000000000000000000000000815260040161262490613e14565b60405180910390fd5b6126396000838361230d565b6001600360008473ffffffffffffffffffffffffffffffffffffffff1673ffffffffffffffffffffffffffffffffffffffff1681526020019081526020016000206000828254612689919061353c565b92505081905550816002600083815260200190815260200160002060006101000a81548173ffffffffffffffffffffffffffffffffffffffff021916908373ffffffffffffffffffffffffffffffffffffffff160217905550808273ffffffffffffffffffffffffffffffffffffffff16600073ffffffffffffffffffffffffffffffffffffffff167fddf252ad1be2c89b69c2b068fc378daa952ba7f163c4a11628f55a4df523b3ef60405160405180910390a45050565b600080823b905060008111915050919050565b6040518060e00160405280600081526020016000815260200160008152602001600081526020016000815260200160008152602001600081525090565b6000604051905090565b600080fd5b600080fd5b60007fffffffff0000000000000000000000000000000000000000000000000000000082169050919050565b6127db816127a6565b81146127e657600080fd5b50565b6000813590506127f8816127d2565b92915050565b6000602082840312156128145761281361279c565b5b6000612822848285016127e9565b91505092915050565b60008115159050919050565b6128408161282b565b82525050565b600060208201905061285b6000830184612837565b92915050565b600081519050919050565b600082825260208201905092915050565b60005b8381101561289b578082015181840152602081019050612880565b838111156128aa576000848401525b50505050565b6000601f19601f8301169050919050565b60006128cc82612861565b6128d6818561286c565b93506128e681856020860161287d565b6128ef816128b0565b840191505092915050565b6000602082019050818103600083015261291481846128c1565b905092915050565b6000819050919050565b61292f8161291c565b811461293a57600080fd5b50565b60008135905061294c81612926565b92915050565b6000602082840312156129685761296761279c565b5b60006129768482850161293d565b91505092915050565b600073ffffffffffffffffffffffffffffffffffffffff82169050919050565b60006129aa8261297f565b9050919050565b6129ba8161299f565b82525050565b60006020820190506129d560008301846129b1565b92915050565b6129e48161291c565b82525050565b60006020820190506129ff60008301846129db565b92915050565b612a0e8161299f565b8114612a1957600080fd5b50565b600081359050612a2b81612a05565b92915050565b60008060408385031215612a4857612a4761279c565b5b6000612a5685828601612a1c565b9250506020612a678582860161293d565b9150509250929050565b600080600060608486031215612a8a57612a8961279c565b5b6000612a9886828701612a1c565b9350506020612aa986828701612a1c565b9250506040612aba8682870161293d565b9150509250925092565b600081519050919050565b600082825260208201905092915050565b6000819050602082019050919050565b612af98161291c565b82525050565b6000612b0b8383612af0565b60208301905092915050565b6000602082019050919050565b6000612b2f82612ac4565b612b398185612acf565b9350612b4483612ae0565b8060005b83811015612b75578151612b5c8882612aff565b9750612b6783612b17565b925050600181019050612b48565b5085935050505092915050565b60006020820190508181036000830152612b9c8184612b24565b905092915050565b600060208284031215612bba57612bb961279c565b5b6000612bc884828501612a1c565b91505092915050565b60008060408385031215612be857612be761279c565b5b6000612bf68582860161293d565b9250506020612c078582860161293d565b9150509250929050565b60008060008060808587031215612c2b57612c2a61279c565b5b6000612c398782880161293d565b9450506020612c4a8782880161293d565b9350506040612c5b8782880161293d565b9250506060612c6c8782880161293d565b91505092959194509250565b612c818161282b565b8114612c8c57600080fd5b50565b600081359050612c9e81612c78565b92915050565b60008060408385031215612cbb57612cba61279c565b5b6000612cc985828601612a1c565b9250506020612cda85828601612c8f565b9150509250929050565b600080fd5b600080fd5b7f4e487b7100000000000000000000000000000000000000000000000000000000600052604160045260246000fd5b612d26826128b0565b810181811067ffffffffffffffff82111715612d4557612d44612cee565b5b80604052505050565b6000612d58612792565b9050612d648282612d1d565b919050565b600067ffffffffffffffff821115612d8457612d83612cee565b5b612d8d826128b0565b9050602081019050919050565b82818337600083830152505050565b6000612dbc612db784612d69565b612d4e565b905082815260208101848484011115612dd857612dd7612ce9565b5b612de3848285612d9a565b509392505050565b600082601f830112612e0057612dff612ce4565b5b8135612e10848260208601612da9565b91505092915050565b60008060008060808587031215612e3357612e3261279c565b5b6000612e4187828801612a1c565b9450506020612e5287828801612a1c565b9350506040612e638782880161293d565b925050606085013567ffffffffffffffff811115612e8457612e836127a1565b5b612e9087828801612deb565b91505092959194509250565b60e082016000820151612eb26000850182612af0565b506020820151612ec56020850182612af0565b506040820151612ed86040850182612af0565b506060820151612eeb6060850182612af0565b506080820151612efe6080850182612af0565b5060a0820151612f1160a0850182612af0565b5060c0820151612f2460c0850182612af0565b50505050565b600060e082019050612f3f6000830184612e9c565b92915050565b60008060408385031215612f5c57612f5b61279c565b5b6000612f6a85828601612a1c565b9250506020612f7b85828601612a1c565b9150509250929050565b7f4e487b7100000000000000000000000000000000000000000000000000000000600052602260045260246000fd5b60006002820490506001821680612fcc57607f821691505b60208210811415612fe057612fdf612f85565b5b50919050565b7f4552433732313a20617070726f76656420717565727920666f72206e6f6e657860008201527f697374656e7420746f6b656e0000000000000000000000000000000000000000602082015250565b6000613042602c8361286c565b915061304d82612fe6565b604082019050919050565b6000602082019050818103600083015261307181613035565b9050919050565b7f4552433732313a20617070726f76616c20746f2063757272656e74206f776e6560008201527f7200000000000000000000000000000000000000000000000000000000000000602082015250565b60006130d460218361286c565b91506130df82613078565b604082019050919050565b60006020820190508181036000830152613103816130c7565b9050919050565b7f4552433732313a20617070726f76652063616c6c6572206973206e6f74206f7760008201527f6e6572206e6f7220617070726f76656420666f7220616c6c0000000000000000602082015250565b600061316660388361286c565b91506131718261310a565b604082019050919050565b6000602082019050818103600083015261319581613159565b9050919050565b7f4e487b7100000000000000000000000000000000000000000000000000000000600052601160045260246000fd5b60006131d68261291c565b91507fffffffffffffffffffffffffffffffffffffffffffffffffffffffffffffffff8214156132095761320861319c565b5b600182019050919050565b7f4552433732313a207472616e736665722063616c6c6572206973206e6f74206f60008201527f776e6572206e6f7220617070726f766564000000000000000000000000000000602082015250565b600061327060318361286c565b915061327b82613214565b604082019050919050565b6000602082019050818103600083015261329f81613263565b9050919050565b7f4e487b7100000000000000000000000000000000000000000000000000000000600052603260045260246000fd5b7f6e6f20746f6b656e730000000000000000000000000000000000000000000000600082015250565b600061330b60098361286c565b9150613316826132d5565b602082019050919050565b6000602082019050818103600083015261333a816132fe565b9050919050565b7f455243373231456e756d657261626c653a206f776e657220696e646578206f7560008201527f74206f6620626f756e6473000000000000000000000000000000000000000000602082015250565b600061339d602b8361286c565b91506133a882613341565b604082019050919050565b600060208201905081810360008301526133cc81613390565b9050919050565b60006040820190506133e860008301856129b1565b6133f560208301846129db565b9392505050565b60008151905061340b81612c78565b92915050565b6000602082840312156134275761342661279c565b5b6000613435848285016133fc565b91505092915050565b7f796f7520646f6e74206f776e20746869732070726f7065727479000000000000600082015250565b6000613474601a8361286c565b915061347f8261343e565b602082019050919050565b600060208201905081810360008301526134a381613467565b9050919050565b7f455243373231456e756d657261626c653a20676c6f62616c20696e646578206f60008201527f7574206f6620626f756e64730000000000000000000000000000000000000000602082015250565b6000613506602c8361286c565b9150613511826134aa565b604082019050919050565b60006020820190508181036000830152613535816134f9565b9050919050565b60006135478261291c565b91506135528361291c565b9250827fffffffffffffffffffffffffffffffffffffffffffffffffffffffffffffffff038211156135875761358661319c565b5b828201905092915050565b7f4552433732313a206f776e657220717565727920666f72206e6f6e657869737460008201527f656e7420746f6b656e0000000000000000000000000000000000000000000000602082015250565b60006135ee60298361286c565b91506135f982613592565b604082019050919050565b6000602082019050818103600083015261361d816135e1565b9050919050565b7f4552433732313a2062616c616e636520717565727920666f7220746865207a6560008201527f726f206164647265737300000000000000000000000000000000000000000000602082015250565b6000613680602a8361286c565b915061368b82613624565b604082019050919050565b600060208201905081810360008301526136af81613673565b9050919050565b7f4f776e61626c653a2063616c6c6572206973206e6f7420746865206f776e6572600082015250565b60006136ec60208361286c565b91506136f7826136b6565b602082019050919050565b6000602082019050818103600083015261371b816136df565b9050919050565b7f4552433732313a20617070726f766520746f2063616c6c657200000000000000600082015250565b600061375860198361286c565b915061376382613722565b602082019050919050565b600060208201905081810360008301526137878161374b565b9050919050565b7f4552433732314d657461646174613a2055524920717565727920666f72206e6f60008201527f6e6578697374656e7420746f6b656e0000000000000000000000000000000000602082015250565b60006137ea602f8361286c565b91506137f58261378e565b604082019050919050565b60006020820190508181036000830152613819816137dd565b9050919050565b600081905092915050565b600061383682612861565b6138408185613820565b935061385081856020860161287d565b80840191505092915050565b6000613868828561382b565b9150613874828461382b565b91508190509392505050565b7f4f776e61626c653a206e6577206f776e657220697320746865207a65726f206160008201527f6464726573730000000000000000000000000000000000000000000000000000602082015250565b60006138dc60268361286c565b91506138e782613880565b604082019050919050565b6000602082019050818103600083015261390b816138cf565b9050919050565b7f4e487b7100000000000000000000000000000000000000000000000000000000600052601260045260246000fd5b600061394c8261291c565b91506139578361291c565b92508261396757613966613912565b5b828204905092915050565b600061397d8261291c565b91506139888361291c565b9250817fffffffffffffffffffffffffffffffffffffffffffffffffffffffffffffffff04831182151516156139c1576139c061319c565b5b828202905092915050565b60006139d78261291c565b91506139e28361291c565b9250828210156139f5576139f461319c565b5b828203905092915050565b7f4552433732313a206f70657261746f7220717565727920666f72206e6f6e657860008201527f697374656e7420746f6b656e0000000000000000000000000000000000000000602082015250565b6000613a5c602c8361286c565b9150613a6782613a00565b604082019050919050565b60006020820190508181036000830152613a8b81613a4f565b9050919050565b7f4552433732313a207472616e73666572206f6620746f6b656e2074686174206960008201527f73206e6f74206f776e0000000000000000000000000000000000000000000000602082015250565b6000613aee60298361286c565b9150613af982613a92565b604082019050919050565b60006020820190508181036000830152613b1d81613ae1565b9050919050565b7f4552433732313a207472616e7366657220746f20746865207a65726f2061646460008201527f7265737300000000000000000000000000000000000000000000000000000000602082015250565b6000613b8060248361286c565b9150613b8b82613b24565b604082019050919050565b60006020820190508181036000830152613baf81613b73565b9050919050565b7f4552433732313a207472616e7366657220746f206e6f6e20455243373231526560008201527f63656976657220696d706c656d656e7465720000000000000000000000000000602082015250565b6000613c1260328361286c565b9150613c1d82613bb6565b604082019050919050565b60006020820190508181036000830152613c4181613c05565b9050919050565b6000613c538261291c565b9150613c5e8361291c565b925082613c6e57613c6d613912565b5b828206905092915050565b600081519050919050565b600082825260208201905092915050565b6000613ca082613c79565b613caa8185613c84565b9350613cba81856020860161287d565b613cc3816128b0565b840191505092915050565b6000608082019050613ce360008301876129b1565b613cf060208301866129b1565b613cfd60408301856129db565b8181036060830152613d0f8184613c95565b905095945050505050565b600081519050613d29816127d2565b92915050565b600060208284031215613d4557613d4461279c565b5b6000613d5384828501613d1a565b91505092915050565b7f4552433732313a206d696e7420746f20746865207a65726f2061646472657373600082015250565b6000613d9260208361286c565b9150613d9d82613d5c565b602082019050919050565b60006020820190508181036000830152613dc181613d85565b9050919050565b7f4552433732313a20746f6b656e20616c7265616479206d696e74656400000000600082015250565b6000613dfe601c8361286c565b9150613e0982613dc8565b602082019050919050565b60006020820190508181036000830152613e2d81613df1565b905091905056fea2646970667358221220f1cb09f41f1bc21df98644bcc1fbfc60209c8adc22d2c5dec9bcc01c7699b0c264736f6c63430008090033",
  "immutableReferences": {},
  "source": "pragma solidity 0.8.9;\r\n\r\nimport \"@openzeppelin/contracts/token/ERC721/ERC721.sol\";\r\nimport \"@openzeppelin/contracts/access/Ownable.sol\";\r\nimport \"@openzeppelin/contracts/token/ERC721/extensions/ERC721Enumerable.sol\";\r\nimport \"RewardContract.sol\";\r\nimport \"@openzeppelin/contracts/utils/math/SafeMath.sol\";\r\n\r\ncontract NFT is ERC721Enumerable, Ownable {\r\n    struct Dwarf {\r\n        uint256 mining;\r\n        uint256 luck;\r\n        uint256 stamina;\r\n        uint256 mineCooldown;\r\n        uint256 lastMine;\r\n        uint256 level;\r\n        uint256 experience;\r\n    }\r\n    uint256 nextId = 0;\r\n    uint256 maxSupply = 0;\r\n    mapping(uint256 => Dwarf) private _tokenDetails;\r\n    mapping(uint256 => uint256) private levels;\r\n    uint256 levelsIndex = 0;\r\n    address rewardAdress;\r\n    uint256 lastStaminaReplenished;\r\n    uint256 staminaReplenishTime = 30;\r\n    uint256 exp = 100;\r\n    uint256 expMultiplier = 30;\r\n    using SafeMath for uint256;\r\n\r\n    constructor(string memory name, string memory symbol) ERC721(name, symbol) {\r\n        maxSupply = 1000;\r\n        lastStaminaReplenished = block.timestamp;\r\n        _initialize();\r\n    }\r\n\r\n    function giveExperience(uint256 tokenId, uint256 amount) public {\r\n        _tokenDetails[tokenId].experience += amount;\r\n        uint256 tokenExp = _tokenDetails[tokenId].experience;\r\n        if (tokenExp >= requiredExpForNextLevel(tokenId)) {\r\n            levelUp(tokenId);\r\n        }\r\n    }\r\n\r\n    function addLevels(uint256 levelAmount) public onlyOwner {\r\n        uint256 i = 0;\r\n        for ( i = 0; i < levelAmount; i++) {\r\n            if (expMultiplier > 0) {\r\n                expMultiplier = expMultiplier.sub(1);\r\n            }\r\n            exp = exp.add(((exp / 100) * expMultiplier));\r\n            uint256 a = exp;\r\n            uint256 m = 100;\r\n            exp = ((a + m - 1) / m) * m;\r\n            levels[i] = exp;\r\n            levelsIndex++;\r\n        }\r\n        exp = levels[i];\r\n    }\r\n\r\n    function returnLevel(uint256 levelIndex) public view returns (uint256) {\r\n        return levels[levelIndex];\r\n    }\r\n\r\n    function levelUp(uint256 tokenId) public {\r\n        _tokenDetails[tokenId].level++;\r\n        _tokenDetails[tokenId].experience = 0;\r\n    }\r\n\r\n    function experienceOf(uint256 tokenId) public view returns (uint256) {\r\n        return _tokenDetails[tokenId].experience;\r\n    }\r\n\r\n    function levelOf(uint256 tokenId) public view returns (uint256) {\r\n        return _tokenDetails[tokenId].level;\r\n    }\r\n\r\n    function requiredExpForNextLevel(uint256 nextLevelIndex)\r\n        public\r\n        view\r\n        returns (uint256)\r\n    {\r\n        return levels[nextLevelIndex];\r\n    }\r\n\r\n    function _initialize() internal {\r\n        uint256 totalNft = nextId;\r\n        uint256 i;\r\n        if (lastStaminaReplenished + staminaReplenishTime < block.timestamp) {\r\n            for (i = 0; i < totalNft; i++) {\r\n                _replenishStamina(i);\r\n            }\r\n            lastStaminaReplenished = block.timestamp;\r\n        }\r\n    }\r\n\r\n    function _replenishStamina(uint256 tokenId) internal {\r\n        _tokenDetails[tokenId].stamina++;\r\n    }\r\n\r\n    function lastStaminaReplenishedTime() public view returns (uint256) {\r\n        return lastStaminaReplenished;\r\n    }\r\n\r\n    function getTokenDetails(uint256 tokenId)\r\n        public\r\n        view\r\n        returns (Dwarf memory)\r\n    {\r\n        return _tokenDetails[tokenId];\r\n    }\r\n\r\n    function maxSupply_t() public view returns (uint256) {\r\n        return maxSupply;\r\n    }\r\n\r\n    function setRewardAdress(address _rewardAdress) external {\r\n        rewardAdress = _rewardAdress;\r\n    }\r\n\r\n    function mint(\r\n        uint256 mining,\r\n        uint256 luck,\r\n        uint256 stamina,\r\n        uint256 mineCooldown\r\n    ) public {\r\n        _tokenDetails[nextId] = Dwarf(\r\n            mining,\r\n            luck,\r\n            stamina,\r\n            mineCooldown,\r\n            block.timestamp,\r\n            1,\r\n            0\r\n        );\r\n        _safeMint(msg.sender, nextId);\r\n        nextId++;\r\n        _initialize();\r\n    }\r\n\r\n    function totalSupply_t() public view returns (uint256) {\r\n        return nextId;\r\n    }\r\n\r\n    function mine(uint256 tokenId) public returns (string memory) {\r\n        _initialize();\r\n        RewardContract rewardContract = RewardContract(rewardAdress);\r\n        uint256 reward = 1000000000000000;\r\n        address userAdress = msg.sender;\r\n        rewardContract.reward(userAdress, reward);\r\n\r\n        Dwarf storage dwarf = _tokenDetails[tokenId];\r\n        require(ownerOf(tokenId) == msg.sender, \"you dont own this property\");\r\n        // require(\r\n        //     dwarf.lastMine + dwarf.mineCooldown < block.timestamp,\r\n        //     \"on cooldown\"\r\n        // );\r\n        // require(dwarf.stamina > 0, \"no stamina\");\r\n        dwarf.lastMine = block.timestamp;\r\n        // dwarf.stamina--;\r\n        giveExperience(tokenId, 200);\r\n        return \"Success\";\r\n    }\r\n\r\n    function getAllTokens() public view returns (uint256[] memory) {\r\n        uint256 totalNft = nextId;\r\n        uint256[] memory result = new uint256[](totalNft);\r\n        uint256 i;\r\n        uint256 resultIndex = 0;\r\n        for (i = 0; i < totalNft; i++) {\r\n            result[resultIndex] = i;\r\n            resultIndex++;\r\n        }\r\n        require(result.length > 0, \"no tokens\");\r\n        return result;\r\n    }\r\n\r\n    function getAllTokensOfUser(address user)\r\n        public\r\n        view\r\n        returns (uint256[] memory)\r\n    {\r\n        uint256 tokenCount = balanceOf(user);\r\n        uint256[] memory result = new uint256[](tokenCount);\r\n        uint256 totalNft = nextId;\r\n        uint256 i;\r\n        uint256 resultIndex = 0;\r\n        for (i = 0; i < totalNft; i++) {\r\n            if (ownerOf(i) == user) {\r\n                result[resultIndex] = i;\r\n                resultIndex++;\r\n            }\r\n        }\r\n        return result;\r\n    }\r\n\r\n    function _beforeTokenTransfer(\r\n        address from,\r\n        address to,\r\n        uint256 tokenId\r\n    ) internal override {\r\n        Dwarf storage dwarf = _tokenDetails[nextId];\r\n        require(dwarf.lastMine + dwarf.mineCooldown > block.timestamp);\r\n        _initialize();\r\n    }\r\n}\r\n",
  "sourcePath": "C:\\Users\\win10\\Desktop\\dev\\MetaDwarfs\\contracts\\NFT.sol",
  "compiler": {
    "name": "solc",
    "version": "0.8.9+commit.e5eed63a.Emscripten.clang"
  },
  "schemaVersion": "3.4.3",
  "updatedAt": "2021-11-12T01:54:42.034Z",
  "networkType": "ethereum",
  "devdoc": {
    "kind": "dev",
    "methods": {
      "approve(address,uint256)": {
        "details": "See {IERC721-approve}."
      },
      "balanceOf(address)": {
        "details": "See {IERC721-balanceOf}."
      },
      "getApproved(uint256)": {
        "details": "See {IERC721-getApproved}."
      },
      "isApprovedForAll(address,address)": {
        "details": "See {IERC721-isApprovedForAll}."
      },
      "name()": {
        "details": "See {IERC721Metadata-name}."
      },
      "owner()": {
        "details": "Returns the address of the current owner."
      },
      "ownerOf(uint256)": {
        "details": "See {IERC721-ownerOf}."
      },
      "renounceOwnership()": {
        "details": "Leaves the contract without owner. It will not be possible to call `onlyOwner` functions anymore. Can only be called by the current owner. NOTE: Renouncing ownership will leave the contract without an owner, thereby removing any functionality that is only available to the owner."
      },
      "safeTransferFrom(address,address,uint256)": {
        "details": "See {IERC721-safeTransferFrom}."
      },
      "safeTransferFrom(address,address,uint256,bytes)": {
        "details": "See {IERC721-safeTransferFrom}."
      },
      "setApprovalForAll(address,bool)": {
        "details": "See {IERC721-setApprovalForAll}."
      },
      "supportsInterface(bytes4)": {
        "details": "See {IERC165-supportsInterface}."
      },
      "symbol()": {
        "details": "See {IERC721Metadata-symbol}."
      },
      "tokenByIndex(uint256)": {
        "details": "See {IERC721Enumerable-tokenByIndex}."
      },
      "tokenOfOwnerByIndex(address,uint256)": {
        "details": "See {IERC721Enumerable-tokenOfOwnerByIndex}."
      },
      "tokenURI(uint256)": {
        "details": "See {IERC721Metadata-tokenURI}."
      },
      "totalSupply()": {
        "details": "See {IERC721Enumerable-totalSupply}."
      },
      "transferFrom(address,address,uint256)": {
        "details": "See {IERC721-transferFrom}."
      },
      "transferOwnership(address)": {
        "details": "Transfers ownership of the contract to a new account (`newOwner`). Can only be called by the current owner."
      }
    },
    "version": 1
  },
  "userdoc": {
    "kind": "user",
    "methods": {},
    "version": 1
  }
}